:020000040001F9
:10800000D0300020F58001000F81010011810100B6
:108010000000000000000000000000000000000060
:1080200000000000000000000000000013810100BB
:108030000000000000000000158101001781010010
:1080400019810100198101002D84010019810100AD
:108050001981010000000000458201001981010022
:1080600019810100198101001981010019810100A4
:108070001981010019810100198101001981010094
:10808000198101004183010019810100198101005A
:108090006183010019810100B5830100198101008C
:1080A000198101001981010000000000000000009A
:1080B00000000000000000000000000000000000C0
:1080C0000348854600F08EF80048004779AF01006C
:1080D000D0300020401E00BF00BF00BF00BF00BF67
:1080E00000BF00BF00BF00BF00BF00BF00BFF1D195
:1080F000704700000321094802680A4302600848EB
:1081000002680A4302600748804707480047FEE7C5
:10811000FEE7FEE7FEE7FEE7FEE70000240500407D
:1081200054050040D9830100C180010030B50B46E1
:10813000014600202022012409E00D46D5409D4241
:1081400005D31D469540491B2546954040191546C7
:10815000521E002DF1DC30BD10B5431A934209D2F6
:108160008318881803E0401E01785B1E1970521EA8
:10817000F9D210BD03460B439B0703D009E008C9A1
:10818000121F08C0042AFAD203E00B780370401CC7
:10819000491C521EF9D210BDD2B201E00270401C3F
:1081A000491EFBD270470022F6E710B513460A4677
:1081B00004461946FFF7F0FF204610BD421C017827
:1081C000401C0029FBD1801A704730B504460020BE
:1081D000034600E05B1C934203D2E05CCD5C401B95
:1081E000F8D030BD064C0125064E05E0E36807CC0B
:1081F0002B430C3C98471034B442F7D3FFF764FF8D
:1082000058C1010078C1010030B58C180278401CBB
:1082100013071B0F01D10378401C120906D1027805
:10822000401C03E005780D70401C491C5B1EF9D111
:1082300001E00B70491C521EFBD1A142E6D3002085
:1082400030BD0000F0B52A4885B0046929480021F6
:10825000C1630E46284F45E01420796870434518E5
:108260000120B968B04008423AD000200090039045
:10827000E8682968C04360400840014602902846EB
:1082800003F012FB1A48006929686040084016D0C4
:10829000224642400192E868C043504008400146EF
:1082A0000090284603F000FB019A0098A9689043CB
:1082B00001400391009869680240114000910298C2
:1082C000A968A04301400398029A014368682240CC
:1082D0001040009A104302460A4301D02A69904791
:1082E000761CF6B278788642B6D305B0F0BD0000B1
:1082F0000005005040610040282100208307FF2234
:10830000DB0E9A408907090E994000280BDA000716
:10831000000F0838830808489B001818C369934366
:108320000B43C3617047830804489B001B181868FF
:10833000904308431860704700ED00E000E400E05F
:1083400010B506490020086048608860C86003498D
:1083500040390860486003F059FD10BD40110140EC
:10836000FEB50020C043124D029068690190684636
:108370002E6902F07FFA074602F03CFD0446002F0A
:1083800008D002AA0199009802F094FA029802F02B
:108390007BFD06E0029802F077FD002801D1002C59
:1083A00002D0304601F0D6FC00206871FEBD00000E
:1083B0003421002010B507484068002807D08047C6
:1083C000002803D00022114600F002FA10BD02F08E
:1083D0008DFC10BD5821002010B502F0D5FC0028FE
:1083E00005D00E490C484860C8130D4988610D48F6
:1083F000018CC9B201290ED1818C09070BD1018DE5
:108400000906090F042906D1808D0006000F02D14C
:1084100005490120886010BDDFFF07C0000500404E
:10842000006C0040C00F00F0000600407CB51B4C03
:10843000A0681B4E0025002818D0A5601948806947
:10844000C1B2194800F0E7F9002805D001216A46B9
:1084500011700190684607E013488168C068401AAF
:10846000012803D168460570B1688847E069002893
:1084700003D0E561032002F07DFE606A00280BD086
:108480006562084980390868086002216A461170EF
:108490000190B168684688477CBD0000002100401B
:1084A000F820002000250040D027002030B474467A
:1084B000641E2578641CAB4200D21D46635D5B00E0
:1084C000E31830BC184702E008C8121F08C1002A90
:1084D000FAD170477047002001E001C1121F002A45
:1084E000FBD1704738B50D4C6078022802D00C499A
:1084F0000120886069460B4800F07CF9002802D012
:1085000000F016F838BD0848802181606A46074BA4
:108510001278DA6102226270416038BDF8200020D2
:1085200000200040E02700200023004000250040FC
:108530001CB506490120C8600549487003206A46F9
:1085400010708968684688471CBD00000020004004
:10855000F820002004490020487004490122CA6024
:108560004A60034908607047F8200020002000405E
:1085700000250040F7B582B0002605461670007849
:108580001446002805D02846039902F083FD060012
:1085900008D1A87800281ED02078039F001D1F282E
:1085A00002D90C2005B0F0BD684679DF0028F9D16A
:1085B00021780322481C20707A5421781922481C03
:1085C00020707A542078C1196846008803F0A8FC0E
:1085D000217840182070E8780223002810D02078F5
:1085E000039A411C2170135420780399471C0122DF
:1085F00027700A542078EA78471C039927700A5498
:108600006868002815D00021415620788C46024623
:10861000C01C03991F28C4D8501C20708B5422788A
:108620000A23501C20708B5420786246431C237010
:108630000A542889002809D02846009406220221DD
:108640000830039B03F0EAFC0600ABD1288A00281F
:1086500009D028460094072203211030039B03F021
:10866000DDFC06009ED1288B002809D02846009406
:10867000152214211830039B03F0D0FC060091D181
:10868000286A002805D02246039901F0B5FB0600B0
:1086900088D1686A002805D02246039902F0C8FCF8
:1086A000060084D12C20405D002806D022462846B2
:1086B000039903F07EF90600C7D1304672E7000047
:1086C00010B594B030216846FFF76DFD0221684671
:1086D0000170012484700621C170032101821248B7
:1086E00005900021684600F057FB002803D00022C7
:1086F000114600F06DF820210CA8FFF754FD08A8E2
:108700000476FF202D300F90B42010900023074AEC
:108710000CA9684600F06EFB002803D00022114629
:1087200000F056F814B010BD342000200BB1010049
:10873000044842680121C9050B46934383600A40FF
:10874000C26070470005005010B505484168002917
:1087500003D0407800F0BCF810BD082010BD000028
:1087600010210020F8B50B46052A01D20720F8BDDC
:108770001349144D48600B708A60002101240BE0FE
:10878000DA00121816789778B600BF0076193760AD
:1087900016782246B24011431A465B1EDBB2002A0D
:1087A000EED10748084B0A46401C00F0DBF80028D1
:1087B000DDD10348054A00210C3000F00BF9F8BD6B
:1087C000102100200007005029AB0100419F01004B
:1087D000BFF34F8F03490248C860BFF34F8FFEE7D6
:1087E0000400FA0500ED00E0014B1B68184700008B
:1087F000AC2700208268C36893420AD082688388CD
:108800001A4003689A5C0A708168491C81600020E4
:108810007047052070478268C3689B1A828893421C
:1088200008D8C36813400268D154C168491CC160AC
:10883000002070470420704710B5002903D08A0734
:108840000024002A01D0072010BD0F4A0B465160BA
:10885000107014215470414318469460FFF7A3FC34
:1088600000200A49C0438860094840210160094A44
:108870001068FF231B0498430B041843106006483C
:108880000160002010BD000028210020006300408E
:1088900080E200E004E400E000E100E00A4B5A68F6
:1088A000002A04D05B78984203D307207047082041
:1088B0007047142358438018044A12690068024024
:1088C00000200A60704700002821002000050050A9
:1088D000F0B51F4A5168002904D05378984203D359
:1088E0000720F0BD0820F0BD1A4B0025DD631A4BB0
:1088F0001C699768002F02D1184EDB0573600126B2
:1089000086403E439660142250434218D5600022B0
:1089100001230D5893401D4215D01C4202D003255F
:108920002D0405E001256D044618F7681F43F76024
:108930000B4B9600F3181E6803273F04BE431E60CE
:108940001E682E431E60521C202AE1D30020F0BD79
:1089500028210020406100400005005000630040D5
:1089600000070050F8B5114F84467D68002D07D0F0
:10897000002B07D078783C78A04205D30420F8BDBE
:108980000820F8BD0720F8BD0E46142416434443C2
:108990002E5164192361A260616061460870411C18
:1089A000797002F057FC0020F8BD0000282100205B
:1089B00038B50C46A268064B12019D5809786288AA
:1089C00000920246204608302369A84738BD0000BF
:1089D000BC28002070B5114CA568002D06D0002AD7
:1089E00006D0002804D00023247809E0082070BDB8
:1089F000072070BD24265E43AE5D002E04D05B1CB4
:108A0000A342F7DB042070BD242401265C432E55CD
:108A100064196170A2610360002070BD34210020E0
:108A2000FFB59807002481B01E4615460F46002862
:108A30000BD1002E09D002F015FF22490A98886157
:108A40000F70324600208E6008E0072005B0F0BDB0
:108A500024234343D4549B181C75401CB842F7DBB5
:108A600024204743BB19032048700F461846CB60AB
:108A700019461830002218232E465E43D3005B1897
:108A80001C705C709D7058603018521C032AF5DB16
:108A90000020C0433861BC70FC7001240A482405E2
:108AA000046003211420FFF729FC08480460084CE7
:108AB0000198A06003211120FFF720FC6068786115
:108AC0000020C3E73421002080E200E000E100E064
:108AD00000150140FEB504461D48174682680D4644
:108AE000002A0CD001788C4201D2052D01D207203A
:108AF000FEBD214624235943535C012B01D008209D
:108B0000FEBD8818407801281DD0002603F04AFADF
:108B1000C0000F490190C9684018694603F06CFA1B
:108B2000002812D0012101700A49446049680830C8
:108B3000E2C007490198C96841180098487003F0DD
:108B4000F3F80020FEBD2E46E0E70420FEBD000045
:108B50003421002000150140F8B5144D0446A868E2
:108B6000002809D029788C4201D30720F8BD2421A0
:108B70006143405C012801D00820F8BD03F012FADF
:108B8000C600E8686946301803F036FA00280AD0B3
:108B9000022101704460E86831180098487003F0C1
:108BA000C3F80020F8BD0420F8BD000034210020E7
:108BB00010B5184C012100220904E068FFF78AFF74
:108BC000002803D000221146FFF702FE01210022F7
:108BD000C9032069FFF77EFF002803D00022114659
:108BE000FFF7F6FD00220C496069FFF773FF0028CC
:108BF00003D000221146FFF7EBFD05210022C90337
:108C0000A069FFF767FF002803D000221146FFF795
:108C1000DFFD10BD0020002066260000F0B50546EF
:108C2000007D002493B00E4600280DD0012001469F
:108C30006846103103940173717B4173817BF92085
:108C400001406846891C81731C2104A8FFF7ABFA18
:108C50006946087C02210843694608742A7DEF2191
:108C6000002A02D01022104300E008406A46107427
:108C7000059407940894287D002800D003A8099043
:108C800001270A9410469771304A82800094B27B83
:108C90000270F27B42708078F9221040F722801C2B
:108CA0001040EF2108404108490068468170317B3F
:108CB000017214210BA8FFF776FA01A80B90684601
:108CC0000C908786C486078702A80F90A888AB1DE2
:108CD0000BAA04A9A2DF002835D1B068002830D043
:108CE000684687711A4981800094317C01700020A8
:108CF0000146684641708078F9210840F721801CC0
:108D00000840EF210840410849006846817011A8D9
:108D1000B16800F0A0FC064614210BA8FFF743FA47
:108D200001A80B9068460C908686C486068711A819
:108D30000F902A46E8880E320BA9A3DF002802D143
:108D400000E0EC81002013B0F0BD0000192A000003
:108D50000829000010B50C490C4802F00FFEC1B202
:108D60000948683800F012FA00280BD0082809D00A
:108D70000749884206D00749884203D0002211469D
:108D8000FFF726FD10BD00003C2500201C20002020
:108D9000043000000134000070B50C4692B0002190
:108DA0006A46117007251171002809D0C17849075A
:108DB0000CD502A9FFF7DEFB002808D102AE00E0C7
:108DC0000026002C0ED0E078002802D0284612B0F1
:108DD00070BD01AA0AA92046FFF7CCFB0028F6D1F6
:108DE0000AAA00E00022684603790178304672DF63
:108DF000EDE7000070B5040012D0002910D04A48F9
:108E0000002545710361C26020224848FFF7A4F99C
:108E10004648C168002905D00169002902D002E056
:108E20000E2070BD05728169002902D0C169002938
:108E300000D1057500F0DCF83C494039084610388F
:108E400001602031816030213038FFF7ACF93748BC
:108E5000217880380170A1788170E178C1706178E3
:108E600041706269216942610161E268A168C26082
:108E700081600146E369A269CB618A61616A002968
:108E800017D00146A0310246AC3241628A60636A63
:108E90001B880B80616A436A898899800021436A34
:108EA00004E0656AAD686D5C5554491C9D888D422F
:108EB000F7D8A16A00291CD01C4A583211460C3937
:108EC0008A608162A36A9B888B80A16A836A098811
:108ED00019800021836A04E0A56AAD686D5C555471
:108EE000491C9D888D42F7D82C210A5D0F496039B5
:108EF0000A73216A002909D00B4914310162226AE0
:108F000052884A80216A026A0988118061680029B2
:108F100004D00549C91D41606168416003480021D2
:108F20008038FFF739FF70BD5C200020EC25002061
:108F300010B50288204C102A15D00021112A15D016
:108F4000192A0FD1807900280CD1607901281CD012
:108F500002282DD0032805D12171E2680846002A95
:108F600000D0904710BD8088208110BD61701349EA
:108F70000979A171808821898842F6D1012012E007
:108F800021690029F1D0884710BDA079002809D0B7
:108F90000948193002F032F9002803D0A079401EA8
:108FA000A071EBE7022000F02BF80028E8D110BDFB
:108FB000022020710320F6E75C200020EC25002031
:108FC00010B5022801D003280ED1084C20780028C3
:108FD0000AD000202070607900F012F8002803D039
:108FE0002169002900D0884710BD00005C200020C6
:108FF00010B507210148FFF7D6F810BD74200020F6
:10900000F0B5604C87B0607106A802F061F90028E5
:1090100079D106980127002801D02770AFE0FFF72B
:10902000E7FF594D00266878002808D060790128AC
:1090300016D1E168002906D0E770072088476079DB
:10904000012802D00CE0E67002E06878002805D024
:109050004C48193002F0D2F8002801D1022060718A
:10906000287A002804D16079022801D10320607198
:10907000287D002804D16079032801D1667126710A
:10908000E16800290AD06079022801D0032805D1BF
:109090002878002802D06078002814D0A670182103
:1090A0006846FFF780F868460670019606720396D8
:1090B000607901280BD0344F0426503F02280FD08E
:1090C000032850D12EE0A77006208847E7E72D48F7
:1090D000183001906846077046820682277145E085
:1090E000288A69464882A88908822748503802F0B1
:1090F000F9FF002805D02878002802D060780028E1
:1091000002D002202EE03BE00220694608721E4891
:1091100003978038C6700021FFF73EFE00282FD14C
:10912000267120E0288B69460882A88B4882164861
:10913000503802F0D7FF002805D02878002802D048
:109140006078002801D003200CE0022069460872F4
:109150000D4803978038C6700021FFF71DFE0028D8
:109160000ED1052020716079002803D0684673DF96
:10917000002805D1E168002901D020798847002026
:1091800007B0F0BD5C200020EC25002073B586B050
:1091900004466946227C097F00208A4225D00025AA
:1091A0000126684600950680458007A80190217435
:1091B000E188608A6A46A4DF002816D1608A0D49DA
:1091C000884214D0207D002811D002950395049583
:1091D0000595E18868460181867241888181049005
:1091E00001980590608A02A9A6DF08B070BD08202A
:1091F000FBE70000FFFF000038B504460868206068
:109200000020C043608208792075FF200D4620743D
:1092100001216846817006490180221D69460120AE
:10922000A0DF002803D129462046FFF7F7FC38BD10
:109230000F18000038B50A88102A1AD0112A1AD03F
:10924000502A1BD1027D002A18D0CA884389891D63
:109250009A4213D10A8B022A10D10268002A0DD03B
:10926000CB7E8C7E19022143C907C90F07D000218C
:1092700006E0898801E00021C943418238BD01210F
:109280006B4619706946904738BD000070B50546B9
:1092900001461C220F48FEF75FFF0F4C0026267088
:1092A0002968002907D00822A018FEF755FF20469C
:1092B00008307ADF02E0084808307BDF002808D158
:1092C000401E608004486670044A0021001DFFF7BC
:1092D00081FB70BD642600207C20002041BF01007E
:1092E000F8B5224C028800271F4DE689102A16D0B7
:1092F00029464968112A21D0122A2DD0502A1CD182
:10930000C288801DB24218D1028B022A15D1C27EBA
:10931000837E10021843C007C00F0CD112E0818871
:10932000698001461048082216311030FEF714FFFC
:109330006F70002E01D100F0A7FDF8BD0020C043E2
:1093400068806F700846FFF707FC0028F5D0A16918
:109350000029F2D08847F8BD811D0348082210304B
:10936000FEF7FAFEE7E700007C20002064260020DC
:109370007FB504460121684681714A4981804A4A85
:1093800001A90120A0DF00287ED1228825463C3596
:10939000002A09D044482B46801C0090434861684D
:1093A00000F0BEFB00287BD12289002A0AD03E486B
:1093B0002B460A3000903D48E168401F00F0B0FBAA
:1093C00000286DD1228A002A0AD037482B46123055
:1093D000009036486169001F00F0A2FB00285FD1B1
:1093E000228B002A0AD030482B461A3000902F4892
:1093F000E169801E00F094FB002851D1228C002AE4
:109400000AD029482B46223000902848616AC01EA5
:1094100000F086FB002843D1228D002A0AD0224882
:109420002B462A3000902148E16A401E00F078FB6C
:10943000002835D1216B00290ED002A802F048FC8B
:1094400019482B46323000901848082202A9801F84
:1094500000F066FB002823D1606B00280BD0124976
:109460002B463A310091027901681048401C00F007
:1094700057FB002814D1A16B002910D002A801F0DD
:1094800007FF0948423000E00AE0009007482B46F9
:10949000072202A9273000F043FB002800D100205A
:1094A00004B070BD0A18000094200020292A000092
:1094B00070B5044600F082FE2146124800F080F8A4
:1094C000104821461838FFF7B5FE2046FFF708FF81
:1094D00020880D4D102802D011280ED10AE0072057
:1094E00000F0C4F9002803D000221146FFF770F9FC
:1094F000A08801E00020C043A8802046FFF718FDA7
:1095000070BD0000EC2400200020002030B504468F
:10951000008C134A8BB090421FD006AA204601F05F
:10952000A1FB694605460880002001900290039047
:10953000049022898A8001228A71088106A80391F9
:109540000490208C01A9A6DF002804D1694609886F
:10955000A94200D00C200BB030BD0820FBE7000072
:10956000FFFF000038B50446086820600879607184
:109570000020C0430D4620840020222108554C21A4
:1095800008530121684681700C490180A21D69467B
:109590000120A0DF00280FD12946204601F00AFB58
:1095A000002809D1A868002805D02946204600F0E7
:1095B0008DF8002800D1002038BD00000D180000F3
:1095C00038B50A88102A17D0112A17D0502A18D176
:1095D000CA888389891D9A4213D10A8B022A10D125
:1095E0000268002A0DD0CB7E8C7E19022143C90768
:1095F000C90F07D0002106E0898801E00021C94396
:10960000018438BD01216B4619706946904738BD09
:1096100070B5054604464035A8890E46142807D182
:109620002622A118881EFEF797FDA889401EA88152
:1096300080B241000919401CA8818E8470BD203081
:109640008170704770B504460D460846FEF7B6FDBA
:109650002080656070BD0A780270497841700220F0
:10966000704700001CB5002348221549082002F06D
:109670006DFA002803D000221146FFF7A9F8002058
:1096800000900190012069460870684660DF00285C
:1096900003D000221146FFF79BF80A4802F04CFA6B
:1096A000002803D000221146FFF792F8064802F086
:1096B00065FA002803D000221146FFF789F81CBD87
:1096C00078240020B1940100C1BC0100F0B58FB036
:1096D0000D4606461C216846FEF765FD6846017882
:1096E000022001436846017000240194039404940D
:1096F0000594012708A806948770154968460184D7
:109700000794E97B0177297C4177807FF921084024
:10971000F721801C0840EF210840410849006846B5
:109720008177142109A8FEF73EFD08A8099007A833
:109730000A9068468785C4850786A8680D903346D9
:10974000F088103309AA6946A2DF0FB0F0BD00000F
:10975000382A00001CB5044681786A460C4801F09E
:10976000CBFD002812D160781C21484309491C23F5
:1097700040181A46694601F077FE064806494C3003
:10978000807A80000A582146684690471CBD000038
:10979000F02000206027002038C1010030B40022F2
:1097A00001290BD10B49C968002907D00A4B940045
:1097B0001C59844204D0521C042AF8D330BC704790
:1097C000042AFBD203481030805C0028F6D030BC5D
:1097D0000847000040200020F4C0010004280CD2FB
:1097E000074A1269074B80001B5C01209840904398
:1097F00000D001200870002070470020FAE7000028
:1098000000050050F4C00100F0B500210F4D012704
:109810000F4A03231B048C002E593C468C40044203
:1098200007D0B400A41826689E43266026681E430D
:1098300005E0B400A41826689E43266026682660CA
:10984000491C0429E7D30020F0BD0000F4C001004A
:109850000007005002460020042A02D2024B99540D
:1098600070470720704700005020002010B5054ABF
:109870000146127A0020D20702D0084600F04AF8CA
:1098800010BD00004020002070B50E461C49054662
:109890004E608D600020CA60A90717D500242046BD
:1098A0000B30C1B22046FFF7D5FF641C042C02D256
:1098B0000028F4D00AE0002808D1720804211148D9
:1098C000FEF750FF002801D1FEF73EFFE90706D062
:1098D0000F220D4952058A600023CB608A6100285F
:1098E0000DD10748094A00211430FFF773F800280A
:1098F00005D10348064A01211830FFF76BF870BD07
:109900004020002004C1010000050050DDAD010031
:1099100031870100FEB5784906464F684B690093D0
:10992000BB00FB1800200122019352050546734C31
:109930003300FEF7BBFD180D13133749596C828EA7
:10994000858E97A1A5A5A5A5A5C3C8CDD4DADA12A1
:109950000B225205A260E5600D70FEBD052080055A
:10996000A060E56060680F235B055840800209D560
:10997000A260E560022E02D1E120C0000AE07D2055
:10998000400107E0E260A560022E01D1C82001E09D
:10999000FF2091300E706421FEF7C8FB784300224F
:1099A000014646E005208005A060E56060680F2361
:1099B0005B055840800204D5A260E5601920400193
:1099C000E8E7E260A560E1E705208005A060E560CA
:1099D00060680F235B055840800202D5A260E560F5
:1099E000CDE7E260A560D3E705208005A060E560D3
:1099F00060680F235B055840800202D5A260E560D5
:109A000001E0E260A5600E707900002211E00520FF
:109A10008005A060E56060680F235B055840800208
:109A200002D5A260E56001E0E260A5600E70002250
:109A300039460098FFF74EF8FEBD05239B0544E02C
:109A40006068012189050A468243A2600840E060FF
:109A500010E061680120800502468A43A26001404F
:109A6000E160E4E761680120800502468A43A26064
:109A70000140E1600199C8E70F214905E1601BE061
:109A80000F468869FFF768F811218A1B1C4E01D028
:109A9000002802D0A660E560FEBD012A0BD9104661
:109AA000C82148436421FEF741FB79680022414305
:109AB000B869FFF70FF8E660A560FEBD0F225205FA
:109AC000A260E56015E007239B05A360E5600EE05A
:109AD0000D225205A260E5600122920507E00322F3
:109AE000D205A260E560921001E00F225205E2600B
:109AF000A5600E70FEBD0000402000200005005053
:109B000000008000012905D0002908D102784368AF
:109B100010461847037842680121184610477047DD
:109B2000FFB58FB01E4615460F0004D10022114626
:109B30001046FEF74DFE002D04D1002211461046BE
:109B4000FEF746FE1C216846FEF72DFB68460178AD
:109B50000220014368460170002401940394049498
:109B60000594012108A80694817068460F99018424
:109B700007943178017771784177807FF921084027
:109B8000F721801C0840EF21084041084900684641
:109B90008177142109A8FEF706FB08A8099007A8F9
:109BA0000A9068468585C485058604480D9709AAEC
:109BB00069460088189BA2DF13B0F0BD94200020F6
:109BC000F8B53B4914230A780F205A4354182179D9
:109BD0002569384E241D02291AD004292ED00529C2
:109BE00064D101F003FC01462846FEF79FFA0646C1
:109BF00001F0FCFB0146A08871434019401A870818
:109C000001F0F4FB711C4843A1886288891836E092
:109C1000B0882269800261881318091AA28828185E
:109C2000101801229202914203D28A08194629DFB4
:109C300037E0FF220132194629DF32E0A2681C48D2
:109C40001101CC30091808894B894968A94203D110
:109C50006188584388421BD0022A19D001F0C6FB04
:109C600001462846FEF762FA064601F0BFFB704344
:109C7000281A870801F0BAFB711C484361883A46EC
:109C80004919401A83083146204601F083FF08E055
:109C900001F0ACFB01462846FEF748FAB1884018AF
:109CA00028DF002802D1024901228A70F8BD000095
:109CB000F02700200421002010B5084900204A7830
:109CC000002A09D08978002906D1FFF779FF0028FA
:109CD00002D0112800D1002010BD0000F027002084
:109CE00014225043054A002180180171C1800122CD
:109CF0000161C2604161018170470000F0270020CE
:109D0000F8B5134C069E65780A2D1FD027787D196B
:109D1000EDB20A2D01D30A3DEDB214277D432D1972
:109D20002871002068716A6103C92961E860EB80CD
:109D30002E81A1780020002904D1FFF741FF1128CE
:109D400000D100206178491C6170F8BD0420F8BD85
:109D5000F0270020F8B5224801694A1C3DD0242292
:109D60005143826889184E681E494C6847690079DA
:109D7000E11B0D022D0AED1C002814D101201A4A06
:109D800000045060184A403A50601849400008608A
:109D9000174908601749012008602F20FEF79AF93B
:109DA0000F4901200871B54200D23546E81900027A
:109DB0000C49000A403108600A494968001B091B28
:109DC0000902090A0002000AC91C814204D90120C3
:109DD0000649400480390860F8BD01F043FDF8BD34
:109DE00034210020001501404013014080E200E0D2
:109DF00000E100E000100140F8B50D46117806467C
:109E0000881D14461F2801D90C20F8BD338807206F
:109E1000062BFAD31927FF01BB4202D9164A9342F7
:109E2000F3D17288062AF0D3BA4202D9124FBA424D
:109E3000EBD1114FBB4203D0BA4201D09342E4D8D8
:109E4000481C052220706A5420781222411C21707F
:109E50002A5420784119308802F062F8217840189D
:109E6000C0B220704119708802F05AF82178401869
:109E700020700020F8BD0000FFFF000010B5002298
:109E80001146FEF7A5FC10BDF8B5164800F06EFFB0
:109E9000144D0026103D144C002807D0616900299C
:109EA0001BD001206A461070684615E0287800280B
:109EB00005D06169002910D0684606700CE068780A
:109EC00000280CD0A16800226868FEF703FE002875
:109ED00003D0A169002900D088472E70F8BD6168C1
:109EE000F1E700008C2000206426002070B5094BAB
:109EF00004469E7A082000250E4207D00648844278
:109F000002D01889A04202D10020156070BD052042
:109F100070BD0000A0270020FFFF00000C21484377
:109F2000064910B5012240188272911E0181FF215D
:109F3000C1720721FEF737F910BD0000A0270020ED
:109F4000F8B5184D69466878FEF7A8FC00281DD1C1
:109F50002F4600241037012615E06968E0004018FC
:109F6000037831463A6899400A4210D04268002A84
:109F70000DD04178012901D1002100E00121FFF736
:109F8000C1FD641CE4B228788442E6D3F8BD7A6847
:109F90000A42F6D041680029F3D041780129EDD07A
:109FA000EAE7000010210020FEB50E460446817845
:109FB0006A46234801F0A0F9002826D160780C21D8
:109FC000204F4843C019807A40061FD4022E1DD06E
:109FD000012E1DD01C4DA0781C2148431B49002395
:109FE00041181C226846A847002813D0022E0CD026
:109FF00020780C21484313490C314018807A1449C9
:10A0000080000A58214668469047FEBD114DE2E7A0
:10A01000114DE0E7022EF8D060780C214843C019BA
:10A02000817ABF221140817260781C214843054922
:10A03000403941181C231A466846A847D8E7000053
:10A04000F0200020A027002091BB01009C260020CA
:10A0500028C10100ADB70100F5B5010070B5054696
:10A06000114A124800241C2363431B189B7EFF2BBC
:10A0700004D0641C072CF6D3104670BD0A78022A5F
:10A0800009D01C2262431018FD228276072210306C
:10A09000FEF762F804E01C2161430818FE21817676
:10A0A0002C700022E8E70000438000009C2600207E
:10A0B000F7B505250F4F06460024002E0AD01C20B8
:10A0C0006043C019072231461030FEF77EF80028A1
:10A0D00007D00AE01C206043C019018B029881421E
:10A0E00003D101980025046002E0641C072CE4D32E
:10A0F0002846FEBD9C2600207CB5054681B26A46F6
:10A10000074801F0F9F8040008D17421684601F00D
:10A110001DF9040002D1284601F07CF820467CBDE0
:10A12000F020002010B5100003D000221146FEF7E9
:10A130004FFB002010BD00001FB501F05DF90028A5
:10A1400003D000221146FEF743FB03A90120FFF7CD
:10A1500045FB002803D000221146FEF739FB03A877
:10A1600000F026FA002803D000221146FEF730FB4B
:10A1700001A805210130FEF716F869464879012249
:10A180001043E1210840DF210C3008406946487146
:10A19000072088711020C871064800900A7106488F
:10A1A00000F02EFB002803D000221146FEF710FB22
:10A1B0001FBD000025A1010002200020F0B50546CA
:10A1C00093B000200290FF24ED480E940078002800
:10A1D0004BD0EC4F3868002847D001A800F0DAF9DE
:10A1E000002803D000221146FEF7F2FA281D059040
:10A1F0002A2069460883FF20002688710E71039685
:10A20000E04C28880C3C10280ED0A88803AA022114
:10A21000FFF76CFE002807D103980C214143091970
:10A22000CA7A69468A7148712888132217287CD017
:10A230000FDC10281BD0112853D0132876D01428F7
:10A2400013D103980C2148430019C07AFF2871D01C
:10A250008DE0CD4918286BD01C286AD0522804D133
:10A26000B87A8000095801A8884713B0F0BDC74FDD
:10A2700003AA01213846FFF739FE0028F5D10399DA
:10A280000C20484302220019827211236A4613747B
:10A290005171A98801810722A91DFDF75DFF287D65
:10A2A000C10707D04108B6480830405CFF2808D0F5
:10A2B0000E9006E03A460EA9A81DFFF7F9FE002809
:10A2C0000ED103990C22514309190E98C8728A7A4B
:10A2D00008231A438A726946887101A8FFF73AFA7F
:10A2E00039E103980C2148430119887AFD22104076
:10A2F0008872010706D5C0090DD0002101A8FFF71B
:10A3000053FE08E068468079FF2804D000F082FF01
:10A31000FF206946887103980C22504310210019D0
:10A32000817212206946087415E17FE030E001E097
:10A33000D5E00EE1EA890EA90020FFF7B9FE00285A
:10A340000ED103980C22504300190E99C172837AE2
:10A350000822134383726846817101A8FFF7FAF956
:10A3600003980C2148430019C07AFF2806D00398AF
:10A370001C21484383494C394018029003981C2102
:10A38000484383494218A8880023029982DF6CE77A
:10A3900068460274039B0C2058430119887A0422F2
:10A3A00010438872C87AFF2830D016206946087496
:10A3B0002420434373481A21303818180830FDF719
:10A3C000F2FE03980C2148430019817A4022114380
:10A3D000817203990C2200204A430A901219D27A02
:10A3E0001C235A436A4B0C90D2180B921C225143E7
:10A3F0001A46C43289180791089009903A1DA88816
:10A4000007AB00217FDF0028C1D1A4E00EA8FFF731
:10A4100025FE002801D00646DBE769460E988871C4
:10A4200003990C2251430919C872D2E7787A40087F
:10A4300040007872039A0C209446424311198B7A9B
:10A44000FB2003408B7214206F463874A8790028D3
:10A4500004D0C87AFFF750FEAE797CE0E879400777
:10A4600079D5B879FF2876D008273B438B72EB7AF1
:10A470009B0708D51C2503466B43454D5B199D7E04
:10A480006D086D009D76CB7AFF2B64D0A25C022A0A
:10A4900010D01C2250433E4D072240191030FDF7CA
:10A4A0005BFE684680791C2148434019817EFD226D
:10A4B00011400EE061461C225143324A4C3A891841
:10A4C0004A8A1C214843324940180283817E490848
:10A4D00049008176012101A8FFF766FD3BE0A879DC
:10A4E0000209012A23D10007000F01281FD1039878
:10A4F0000C2242431219927A120718D5242148439C
:10A500002049303940181A210830FDF74CFE16203A
:10A510006946087403980C2148430119887A60221F
:10A5200010438872787A0221084378720FE003980A
:10A530000C2250430019827A80231A43827215201C
:10A540006A461074B87A8000095801A88847002626
:10A5500001E068460274324604A901A8FEF744F9F6
:10A560006846007C122800D07FE603980C21414306
:10A570000919897A0129F7D0FFF7D0FC75E60000A8
:10A58000E0200020AC27002048C10100FFFF0000B0
:10A590009C260020002806D0FF21017041708170A8
:10A5A000C170002070470148704700000E80000015
:10A5B000F0B585B0040036D0294800250560457205
:10A5C00085722846FFF7AAFC254824213038FDF77C
:10A5D000EAFD0026FF27304600F01CFE2148875583
:10A5E000761C072EF7D37421684681800721C1802D
:10A5F0001D481C4900900831684600F087FF00287C
:10A600000FD1184E0120083E3070207800280CD061
:10A6100069468888C988484381B23046103000F0C6
:10A6200095FE05B0F0BD1148FBE7114F00240D4821
:10A63000A1B202AA083000F05FFE002809D11C2058
:10A640006043C01900231C2202A900F00DFF00285E
:10A6500001D03570E5E7641C072CE8D3E1E7000082
:10A66000AC270020E820002075A601000E80000025
:10A670009C260020FFB55D488FB00068189F1E46DD
:10A68000002875D0742F73D86846FFF783FF002821
:10A6900003D000221146FEF79BF8002468460470A0
:10A6A0000471254605970696A9B20DAA504800F0F8
:10A6B00023FE002806D108220DA90F98FDF785FD7D
:10A6C000002817D06D1C072DEED368468578FF2D26
:10A6D0004ED01098042810D046481C21301AFDF79F
:10A6E00025FD012707281ED204A8029011980028F2
:10A6F0000BD011E068468570E7E7742F03D0402047
:10A70000694608716CE02020FAE738463849A840CD
:10A7100010394968084261D0284601F007FC202022
:10A72000694608714AE031481C214C38301AFDF75F
:10A73000FDFC00281DD02D4824213038301AFDF7AB
:10A74000F5FC01002C482CD040216A4611712B49A0
:10A750008E4245D0274AA9001C3A5158B1423DD1FA
:10A7600004A90291C07A854228D16846447025E048
:10A7700034E004A8029020216846017144701B480F
:10A780000A940C300B9058380790684680781C214A
:10A79000484318494018089007A8069018200590CB
:10A7A0000CE0302269460A714C70CF70807A8007C5
:10A7B00004D4114824212438FDF7F5FC109869468B
:10A7C0000328087910D0022108436946087104A8BB
:10A7D000029001A96846119AFEF706F813B0F0BD81
:10A7E000694608790321EFE73843EFE7AC270020FB
:10A7F000F02000209C260020A027002024C101007A
:10A8000070B5064618480D46007800280ED0174946
:10A81000002E0ED0002D0CD02868002809D0144C32
:10A820002168002907D011480A3870BD0F48801FE1
:10A8300070BD084670BD20600522691D201DFDF712
:10A840008BFC2879A072207A02214008400008433E
:10A85000FB2210402072E079012318430843104086
:10A86000E0710020307070BDE02000200E800000FC
:10A87000AC27002010B50E4900238A78CC78A2427C
:10A8800012D0521CD2B28A70022A00D18B708A7800
:10A89000074B92001C339A58026048691018000256
:10A8A000000A4861012010BD0360002010BD0000B7
:10A8B00034210020F7B5144C0025A76823691EE059
:10A8C00024215943C9194E68864202D9301A48607A
:10A8D00017E0801B751900264E600E750E699C46A8
:10A8E0000B6AB646002E0AD0019E76193602360A49
:10A8F0008E607646CE6016680E6261461160591C05
:10A90000DED12361FEBD0000342100200EB51120F0
:10A91000694608720A2214A102A87CDF002803D02D
:10A9200000221146FDF754FF124878DF002803D0BB
:10A9300000221146FDF74CFF0020FF22009041321B
:10A94000694601900A804122D2004A808880FF2017
:10A950009130C88068467ADF002803D00022114673
:10A96000FDF736FF0EBD00004E6F726469635F48ED
:10A97000524D000041030000002070470020704746
:10A9800000207047F8B506464078242104464C4321
:10A9900024490C2250436118224A00254B68243276
:10A9A0008018AE462F469C46002B0CD0827A134668
:10A9B000D20908D05A0606D40D461A4A614689B211
:10A9C000175908358E46174C008924343B46724689
:10A9D0002946A9DF0B2819D0002800D01248012FE2
:10A9E00013D170780C214843001900890F4AA7DF62
:10A9F00000280AD00E49884212D0082810D0891C9D
:10AA000088420DD011280BD00020F8BD70780C21A1
:10AA1000484301230019008972462946A9DFE0E76F
:10AA20000148F8BD7C27002041800000FFFF0000A6
:10AA30000230000070B50C46014660782422084DB3
:10AA400050434019382300F00FFD002807D16178EA
:10AA50002422514349194A68521C00D14A6070BDF2
:10AA60007C270020F3B589B00D461A2069468883FB
:10AA700068780C2103274843224E3B468019008901
:10AA800007AA6946AADF002838D1687824214843FC
:10AA9000741A001969468A8B0830FDF796FB002866
:10AAA000687807D0242148430119496800290DD04E
:10AAB000154E0CE00C2141438919897A89071DD470
:10AAC000242148430019FDF76EFB17E00F4E275075
:10AAD0006846828B68782421484300194260687870
:10AAE0004843001969460830FDF736FB6878242191
:10AAF00048430119382324220998B04700200BB09D
:10AB0000F0BD0000A0270020ADB70100F5B50100A1
:10AB100010B5FFF737FF10BD10B5FFF78BFF10BD65
:10AB200010B5FFF79FFF10BD70B5094D04460E46E6
:10AB3000E868FEF711F8002809D1284610300660B1
:10AB4000446034432246A968E868FDF7C3FF70BD3E
:10AB50001021002010B51349134800F00FFF124CCC
:10AB600081B2243CA068401CA0600E486038FEF70B
:10AB7000CDFC00280BD0082809D00C49884206D00B
:10AB80000B49884203D000221146FDF721FE032124
:10AB9000A068FDF7CBFA002901D0012000E00020D9
:10ABA000207010BD4C25002024200020043000001F
:10ABB00001340000F0B5002406460D46601C010774
:10ABC00095B0090F08A810310C940174297B4174C9
:10ABD000817CF9273940891C81741C2105A8FDF767
:10ABE000E2FA6846017D10200143684601750CA811
:10ABF00006940A900894099401220B9408A882767E
:10AC00001749684601870D94697B08A80175A97BDF
:10AC10004175817DF7203940891C0140EF200140BA
:10AC2000114308A8817514216846FDF7BCFA0EA8E7
:10AC300000900DA801900FAA0021304600F012F8F4
:10AC40000146684601811421448181810FA8049046
:10AC50003346F08808336A4605A9A2DF15B0F0BD77
:10AC6000372A0000F7B542790025002A00D00425D4
:10AC70002222135C0222002B00D01543CBB2FF2905
:10AC800007D901221543029A090A537091700326CD
:10AC900002E0029902264B7004464034A189002943
:10ACA00001D010210D43002716E0B11C142909D949
:10ACB000A189C91B4A007900091824302431FDF705
:10ACC0004BFA0CE0029B7A0012189B19928C1A70B6
:10ACD000120A5A70CEB27F1CA189B942E5DCA08964
:10ACE000C01BA081029805703046FEBDF8B51E4C11
:10ACF0002078002837D02069002807D00026E06897
:10AD0000002805D00025002E04D013E00126F6E728
:10AD10000125F8E7684651DF052806D0002806D04F
:10AD200000221146FDF754FD04E0012602E02169EE
:10AD300000988847002D12D1608869460880A06875
:10AD400061DF052806D0002806D000221146FDF755
:10AD50003FFD04E0012502E0E168A0688847002E7D
:10AD6000D8D0002DCFD0F8BD58210020418805480B
:10AD70000288914204D34088814201D80120704763
:10AD800000207047842000201048018CC9B201299E
:10AD900017D1818C090714D1018D09060A0F03D13F
:10ADA000828D1206120F0ED0090F012903D1828D58
:10ADB0001206120F07D0032903D1808D0006000F61
:10ADC00001D000207047012070470000C00F00F044
:10ADD000800701D0002070470120704710B504485B
:10ADE000017AC90702D00078FEF794FD10BD00007B
:10ADF00040200020F8B5234801690091457833E0F0
:10AE00002048E900C0680E1834782AE01820604312
:10AE10007168641C0818B178E4B2A14200D1002422
:10AE20000178022902D003291BD113E0154A40689A
:10AE30002421926841438F18397D002911D000F0F8
:10AE4000ADFF002038750CE024277843C018027548
:10AE5000006A03E00B4900228B680869471CF3D1A4
:10AE600008617078A042D1D128466D1EEDB200284D
:10AE7000C6D1044801690098814201D00120F8BD83
:10AE80000020F8BD34210020F8B5044638480027DA
:10AE90000169009146785CE03548F100C2688D1880
:10AEA00051E0601C07D0324A24209268604321465A
:10AEB0008018046A24E02878182141436A68401CFD
:10AEC000C0B252182870A978884200D12F70284B40
:10AED000516824209B684843C0181378012B34D153
:10AEE000037D002B31D193688360D368C3601369FD
:10AEF00003615269C2611E4A5279002A00D08760FC
:10AF00001B4B82685B6996469C46D31A1A02194B02
:10AF1000120A9A4202D2C368D21808E07246634607
:10AF20009A1A1202C368120A934202D99A1A42600C
:10AF300000E0476087600122C7600275921E0262CE
:10AF4000084600F0F9FE601CABD128786978884289
:10AF5000A7D13046761EF6B200289DD1044801697B
:10AF60000098814201D00120F8BD0020F8BD00000A
:10AF700034210020FFFF7F0088B0FEF773FB00F054
:10AF800085FF27490120FDF757FC002803D0002248
:10AF90001146FDF71DFC002222490320FEF774FC38
:10AFA000002803D000221146FDF712FCFFF7C4F879
:10AFB000FFF7ACFCFDF784FB00F03AFD00F0A4FCC9
:10AFC0001C216846FDF7EFF80521C90301910F2107
:10AFD0000904002002910090032269460A73104977
:10AFE0002C318A896946CA8108740F4805900F4838
:10AFF00006906846FEF74AF9002803D00022114661
:10B00000FDF7E6FBFDF7D4FD0220FDF7F9FF48DF71
:10B010000028FCD000221146FDF7DAFBF7E700001C
:10B02000C0240020CD0C000051B101007D9E010024
:10B0300070B5054600790E46801C1446C0B21178E2
:10B04000821C8A181F2A01D90C2070BD0A46491C8F
:10B050002170401CB0542078FF22411C21703254D2
:10B0600020788119288800F05BFF21784018C0B251
:10B070002070AA88002A09D0A968002908D0801960
:10B08000FDF76AF82078297940182070002070BDFB
:10B09000072070BDF8B514780746A01C15460E466B
:10B0A0001F2803D87878801C1F2801D90C20F8BDF0
:10B0B0001D20001B80B26946864608803019801C1E
:10B0C0007DDF0028F3D13878022805D16846008852
:10B0D000704501D8092107E078780821002801D0BF
:10B0E000704501D968460088421C3255641CE2B2A2
:10B0F000B1542978801C081828700020F8BD002061
:10B100007047002070470020704710B5002809D014
:10B11000022806D1FEF7AAFB17E000221146FDF730
:10B1200057FB10BD0020FEF7A1FB002803D0002232
:10B130001146FDF74DFB0320FEF766FB002803D008
:10B1400000221146FDF744FB3CDF0028E5D110BD8D
:10B1500010B50078002809D105483B21808876DFAA
:10B16000002803D000221146FDF732FB10BD00007D
:10B170000020002010B51D4A1D490300FDF796F977
:10B1800005040B3120271200487801281FD002281F
:10B1900008D1032005E04878002804D0032801D115
:10B1A0000220487010BD134B04201860124B012080
:10B1B00018609368D2689A42F3D0FDF793F910BDF6
:10B1C0004878012806D0022804D00328F7D1FDF7DB
:10B1D000C1F910BD9068D1688142EED1FDF7A8F9A0
:10B1E00010BD48780128E8D010BD0000E0270020FD
:10B1F000F820002000250040002000400021425C93
:10B20000002A01D001207047491C0629F7D30020ED
:10B210007047000070B505461C200D49684344186E
:10B22000204611300621FCF7BEFF20461021FCF716
:10B23000BAFFFF2121740020A176C0432083284655
:10B2400000F074FE024A0020A9001C3A505070BD64
:10B250009C260020F0B50C4A00215368142250436C
:10B2600001240A4D03273F041E5822468A401642F5
:10B2700006D08A0052191668BE431660166816601A
:10B28000491C2029F0D3F0BD2821002000070050E0
:10B2900070B50D00044604D1002211461046FDF79A
:10B2A00097FA002C04D1002211461046FDF790FABF
:10B2B0002878207069886170090AA170A988E170F6
:10B2C000090A2171E8886071000AA07170BD000050
:10B2D00007490978002906D0002806D00549497891
:10B2E000016000207047082070470E207047000062
:10B2F00004210020F027002030B5124B1B78002BD2
:10B3000007D0002807D0002A05D00468002C12D1ED
:10B3100003E0082030BD0E2030BD0B4B1D68002D12
:10B3200009D045681889414369185D8945435868C3
:10B330002818884201D8072030BD146000205160D1
:10B3400030BD000004210020BC280020F8B50546CF
:10B350001B480F460078002805D0002D05D028682E
:10B36000002820D103E00820F8BD0E20F8BD154CC0
:10B3700000262068002816D060892189484361682A
:10B380004118686881420ED9FFF722FD00280CD0D1
:10B3900029686868090109194A680989801AFCF74F
:10B3A000C5FE002903D00720F8BD1020F8BD3B469C
:10B3B0000022294604200096FEF7A2FCF8BD0000FA
:10B3C00004210020BC28002010B507484469601CF7
:10B3D00006D000F00BF801462046FCF7A7FE10BD92
:10B3E00001200007406910BD001000100120000777
:10B3F000006980B270470000F8B50024184D194E5E
:10B40000AC806C7034707470B47027463846FEF7A8
:10B4100067FC7F1C0A2FF9D36C80FFF7D5FF871ECE
:10B42000FFF7E4FF47430F48AF60AC80CC300460C7
:10B4300004818481448108206870FFF7D7FF0746A4
:10B44000FFF7C2FF441EFFF7D1FF60433946FCF708
:10B450006DFE28DF002802D10121B1702970F8BDEE
:10B4600004210020F0270020FFB5264881B0007895
:10B470001F4616460D46002808D0002D09D0019819
:10B48000002806D02868002818D104E0082005B05C
:10B49000F0BD0E20FBE71C4C206800280ED061890F
:10B4A00020896268414389186A68914206D9002E52
:10B4B00004D0B04202D3F119814201D90720E6E756
:10B4C0000198FFF785FC00281AD03846FFF780FC6A
:10B4D000002815D06868FFF77BFC002810D068684A
:10B4E0003246C1190198FCF737FE00962868002201
:10B4F0000001245803212846019BA0470020C6E7ED
:10B500001020C4E704210020BC280020F8B5374DE6
:10B51000044628780E4600282ED0002C2ED0002E6F
:10B520002CD02068002829D0FFF760FF0146A088B2
:10B53000814228D3102826D3E088002823D0FFF7A3
:10B5400043FF471EFFF752FF4743E088A188484367
:10B55000A9684018874216D3FFF748FF0146E088E4
:10B56000A288504381420BDAFFF740FFA188FCF725
:10B57000DDFD002907D103E00820F8BD0E20F8BD4D
:10B580002079800701D00720F8BD688801281BD0EA
:10B590003060174FA9680201D019716041602168BD
:10B5A000B950A1880181E1884181A088E188002605
:10B5B00048430446761CB6B2FFF718FFA04205D2F6
:10B5C000FFF714FF241A02E00420F8BD0024FFF75F
:10B5D0000DFFA9684018A860002CEBD16888010114
:10B5E000C9198E81401C68800020F8BD042100200C
:10B5F000BC280020F8B5044620481E4600781546B1
:10B600000F46002807D0002F07D0002C05D0206857
:10B61000002817D103E00820F8BD0E20F8BD184817
:10B62000016800290ED04289018940684A431018F8
:10B630006268904206D9002D04D0A94202D3A8190D
:10B64000884201D90720F8BD3846FFF7C1FB002822
:10B6500011D03046FFF7BCFB00280CD06068FFF724
:10B66000B7FB002807D02B463A4621460220009619
:10B67000FEF746FBF8BD1020F8BD000004210020B5
:10B68000BC280020F8B507460020464E8646B07814
:10B6900001281ED10020444BB0705A78082A19D0D6
:10B6A00034462578142169430C19022F20D0032F2A
:10B6B0000FD16079401CC0B26071241D03286AD08C
:10B6C000FEF77EFA002804D0112802D02146FDF7AB
:10B6D0006FF9F8BD022F09D01870FEF7EDFA0028B7
:10B6E000F7D0317814225143891959E05870F4E7A2
:10B6F0002D498B885B1C9EB28E802379241D022BE2
:10B7000005D16788B102B94201D3012100E00021CF
:10B710008C46052B01D1072A03D00021042B02D02F
:10B7200003E00121FAE7072A03D00027042B02D007
:10B7300007E00127FAE76488B302A34201D3002A95
:10B7400027D00022394311436246114317D0164ACD
:10B750001449507090804878401E4870681CC0B2F0
:10B7600008700A2801D30A38087014206843411869
:10B770007046091DFDF71CF92846FEF7B1FAFEF7E1
:10B780009BFA0028A5D0074914230A785A43511878
:10B7900006E00122D6E730781421484381190D20B4
:10B7A000091D94E7F027002004210020F8B5044685
:10B7B00020481E46007815460F46002807D0002F67
:10B7C00007D0002C05D02068002817D103E00820FE
:10B7D000F8BD0E20F8BD1848016800290ED0428936
:10B7E000018940684A4310186268904206D9002DCA
:10B7F00004D0A94202D3A819884201D90720F8BD74
:10B800003846FFF7E5FA002811D03046FFF7E0FA96
:10B8100000280CD06068FFF7DBFA002807D02B4621
:10B820003A46214605200096FEF76AFAF8BD102038
:10B83000F8BD000004210020BC28002010B50748F6
:10B840000078002809D0054805492C3000F096F80A
:10B8500081B203487038FDF7DBFE10BD00200020E8
:10B860005C25002070B501240B49600408600B4979
:10B8700040108860094940398860094D6C602F206C
:10B88000FCF728FCAC60074D00242F206C61FCF70E
:10B8900021FC2C7170BD000080E100E040130140EC
:10B8A0000010014034210020F0B5002201230326BE
:10B8B00036041F469740394212D0C5683D4203D135
:10B8C000012464043D4301E03446BD43C560064D98
:10B8D00097007D192F68B7432F602F6827432F608B
:10B8E000521C202AE5D3F0BD0007005010B50448D3
:10B8F00001224178514041700248FDF7A0FE10BD81
:10B9000000200020EC24002070B5144801245121AF
:10B910006425846022C004711049114800F022F8A7
:10B920000E488C2110300160FF212D3141600A2129
:10B9300081600026067301460948083000F012F8BD
:10B940000648FF2120300560F531846041600673B0
:10B9500001460348103000F005F870BD3C2500207A
:10B960001C2000200A7B002A03D0496801600021C6
:10B9700002E00968016001210171704710B5047986
:10B980008B680268002C08D049688C1A9C4201D947
:10B99000D11807E00160002108E00968541A9C42B0
:10B9A00002D9D11A016002E0016001210171006831
:10B9B00010BDF7B582B002981446806A0F46002881
:10B9C00033D0029800252030009028E00298816A48
:10B9D0000C2068430E18217830794A1C2270C01C54
:10B9E000785420781622411C21703A542078C119CD
:10B9F000308800F095FA21784018C0B22070B288E3
:10BA0000002A09D0B16800290FD0C019FCF7A4FBA7
:10BA100020783179401820706D1C0098EDB2007BC1
:10BA2000A842D3D8002005B0F0BD0720FBE70000F6
:10BA300030B59BB0032118A80172142110A8FCF79F
:10BA4000B2FB0024012510A8109405711AA81290C9
:10BA5000601C0107090F10A810310173447384732F
:10BA6000601C0107090F10A81031C17300200146A6
:10BA700010A8017401462748FDF774FD002803D083
:10BA800000221146FCF7A4FE142115A8FCF78BFB3D
:10BA90000120014618A8103141700120014618A864
:10BAA000103181700020014618A8C17001200146A4
:10BAB00018A81031017110A815940576642118A8F2
:10BAC00017940170134815A91838FDF795FB002845
:10BAD00003D000221146FCF77BFE40216846FCF7AC
:10BAE00062FB0DA16846FDF7ADFD0120014608A8E7
:10BAF000103101770020014608A841776846FDF71C
:10BB000037FC002803D000221146FCF761FE1BB071
:10BB100030BD0000EC2400204E6F726469635365F1
:10BB20006D69636F6E647563746F720010B508465B
:10BB30001146C046C04610BD002803D00249C86067
:10BB4000002070470E2070475821002070B5002952
:10BB500001D08C0701D0072070BD064C0125A160E3
:10BB600062800549636010DF0028F5D1257016203A
:10BB70002EDF70BD582100202DBB0100002803D00E
:10BB800002490861002070470E20704758210020AC
:10BB900000207047FFB581B0484C0E46039F049AC1
:10BBA0000546617803201743002903D1002F0DD0EB
:10BBB00001216170039AC9B2920000920B00FCF758
:10BBC00075FC072C071B2E465D6C2C000221F0E74C
:10BBD000FFF70CFC8708FFF709FC70430546FFF7E9
:10BBE000F3FB461EFFF702FC70433A46294629DF65
:10BBF000002812D102210FE0304628DF00280CD1A6
:10BC00000399002901D0032106E00499002917D1E6
:10BC10002978042950D018E0617005B0F0BDFFF715
:10BC2000D3FB471EFFF7E2FB4743FFF7DFFB704301
:10BC30003946039A29DF0028EFD10499002901D061
:10BC40000421E9E72978042925D00521E4E7FFF755
:10BC5000BBFB471EFFF7CAFB4743688839180098AB
:10BC60000F18FFF7C3FB6988704341180098049AC6
:10BC70000818394629DF0028E4D0CEE7FFF7B6FBE5
:10BC800000997043401869888A08296929DF0028CB
:10BC9000C3D1002F10D00621BEE7FFF7A7FB064651
:10BCA000FFF792FB451EFFF7A1FB68433146FCF707
:10BCB0003DFA28DF0028B0D10721ADE7042100209C
:10BCC00010B50446FFF7DEFC2046FDF779F910BDFC
:10BCD00070B50C00054604D1002211461046FCF751
:10BCE00077FD002D04D1002211461046FCF770FDAF
:10BCF000207828702088FF2109020840000A687017
:10BD0000206809020840000CA8702068000EE87046
:10BD100020792871207A68712089000AA871A068AA
:10BD2000000CE87170BD00000120024900050860A8
:10BD30007047000000E200E0F0B5174F2421BC6816
:10BD400041430D1939694A1C09D024224A43161966
:10BD50006B687268934204D8D21A726029623861A3
:10BD6000F0BD0A4602E00A46396A9B1B4E1C0BD006
:10BD700024264E4337197E689E42F4D324264E4330
:10BD800036197768FF1A77606B60296224214A436D
:10BD900011190862F0BD00003421002070B5194C63
:10BDA0002269A5681346114606E0814207D00A467B
:10BDB000242671434919096A4E1CF6D170BD002E24
:10BDC000FCD08A420CD1242043435819006A2061D8
:10BDD000401C05D10C4B0120986000236361607109
:10BDE000242041434819242341685A43006A5219C8
:10BDF0001062421CE2D0242250434019426851187C
:10BE0000416070BD3421002000100140F8B51D4C88
:10BE10002569681C35D01C48002640686169401AB5
:10BE200007023F0A19E024204543A0682A185068F9
:10BE3000B84214D8A3693F1A8619156A002B09D095
:10BE4000D16990699847002807D000221146FCF775
:10BE5000BFFC02E09169D0698847681CE3D1A178F2
:10BE6000E078814206D1401CC0B2E070022801D1C6
:10BE70000020E07003490006800D1C310E50FFF7D2
:10BE800053FFF8BD342100200015014008B5002003
:10BE90001D4B052208210090FCF7C2FD002803D0AD
:10BEA00000221146FCF794FC184A01211848FCF7BF
:10BEB00091FD002803D000221146FCF789FC1448AC
:10BEC000144A0121001DFCF785FD002803D0002243
:10BED0001146FCF77DFC0E480F4A01210830FCF7A3
:10BEE00079FD002803D000221146FCF771FC0848B8
:10BEF0000A4A01210C30FCF76DFD002803D0002216
:10BF00001146FCF765FC08BD70210020558D01002D
:10BF10000C20002055AB01003DB80100EDB8010038
:10BF20000870000A4870022070470000012181401B
:10BF3000024842688A43426070470000E0200020C7
:10BF400038B51549154A488890420FD04A78144CA4
:10BF5000521CD2B24A70237B934208D3083175DF5A
:10BF6000002803D0A169002900D0884738BD0025EA
:10BF70004D70217C002907D03B2176DF002803D0BB
:10BF8000A169002900D0884761690029EED0684680
:10BF90000570884738BD00007C200020FFFF0000AE
:10BFA0006426002012494868C005C00D19D0103819
:10BFB00040B2002807DA0207120F083A92089200EE
:10BFC0005118C96904E081080A4A8900891809687A
:10BFD0008007C00EC1400806800F012803D0032847
:10BFE00003D00220704700207047012070470000F6
:10BFF00000ED00E000E400E042788378521C9342B8
:10C0000000D100220378934201D1002070470A60DA
:10C01000416840781822504308187047F8B5154613
:10C02000069C1E4607460222009400F00AF80028EB
:10C0300006D13346102229463846009400F001F814
:10C04000F8BDFFB583B0074600200C9C86462678D5
:10C0500005463AE07868A90041180A886846828057
:10C060004988C1800022694601A865DF002810D1F7
:10C07000684601780598814226D17046002801D093
:10C08000002200E002222078891841181F2902D9D5
:10C090000C2007B0F0BD7146002908D1401CC0B289
:10C0A000411C069B049A21701A540120864621786F
:10C0B00006980A18694601A865DF0028E9D1694693
:10C0C00020780978401820706D1C3888A842C1DC9F
:10C0D0007046002804D020780699801B401E8855A1
:10C0E0000020D6E70179002902D1007B002800D08A
:10C0F0000120704711000000120000001300000032
:10C1000014000000110003009D97010012000300BD
:10C110009D970100130003009D9701001400030088
:10C120009D970100FFFFFFFF07B1010065AA010015
:10C1300081A9010021AB010003B1010035AA010072
:10C140007DA9010019AB0100FFB0010085A9010024
:10C1500079A9010011AB010078C101000020002085
:10C16000700100000882010098C1010070210020C8
:10C17000600F0000D68401004201032FFFFF0C2650
:10C180000D1801000F1801000A18010393FFFF02A8
:08C1900075011424F400000005
:04000005000180C1B5
:00000001FF
